:020000040800F2
:1000000000000120C94600080D3000081330000828
:10001000193000081F3000082530000800000000DB
:100020000000000000000000000000002B3000086D
:100030003730000800000000433000084F3000084F
:100040001147000811470008114700081147000830
:1000500011470008114700085B30000811470008ED
:100060001147000811470008114700081147000810
:100070001147000811470008114700081147000800
:1000800011470008114700081147000811470008F0
:1000900011470008114700081147000811470008E0
:1000A00011470008114700081147000811470008D0
:1000B00011470008114700081147000811470008C0
:1000C00011470008114700081147000811470008B0
:1000D00011470008114700081147000811470008A0
:1000E000693000081147000811470008114700084F
:1000F0001147000811470008114700081147000880
:10010000114700081147000811470008114700086F
:100110001147000811470008793000088D300008A9
:10012000114700081147000811470008114700084F
:1001300000000000000000000000000000000000BF
:1001400000000000000000000000000000000000AF
:10015000000000000000000000000000000000009F
:10016000000000000000000000000000000000008F
:10017000000000000000000000000000000000007F
:10018000000000000000000000000000000000006F
:10019000000000000000000000000000000000005F
:1001A000000000000000000000000000000000004F
:1001B000000000000000000000000000000000003F
:1001C000000000000000000000000000000000002F
:1001D000000000000000000000000000000000001F
:0401E0005FF8E0F1F3
:1001E40010B5054C237833B9044B13B10448AFF36D
:1001F40000800123237010BD600100200000000076
:10020400C878000808B5034B1BB103490348AFF392
:10021400008008BD0000000064010020C8780008C8
:10022400034613F8012B002AFBD1181A0138704732
:1002340080F0004002E000BF81F0004142001FBF97
:100244005FEA410392EA030F7FEA226C7FEA236CA0
:100254006AD04FEA1262D2EB1363C1BFD218414095
:1002640048404140B8BF5B42192B88BF704710F02B
:10027400004F40F4000020F07F4018BF404211F0CE
:10028400004F41F4000121F07F4118BF494292EA36
:10029400030F3FD0A2F1010241FA03FC10EB0C0062
:1002A400C3F1200301FA03F100F0004302D54942EF
:1002B40060EB4000B0F5000F13D3B0F1807F06D39C
:1002C40040084FEA310102F10102FE2A51D2B1F194
:1002D400004F40EBC25008BF20F0010040EA030089
:1002E4007047490040EB0000013A28BFB0F5000F09
:1002F400EDD2B0FA80FCACF1080CB2EB0C0200FABF
:100304000CF0AABF00EBC25052421843BCBFD0400D
:100314001843704792F0000F81F4000106BF80F487
:1003240000000132013BB5E74FEA41037FEA226C4A
:1003340018BF7FEA236C21D092EA030F04D092F015
:10034400000F08BF0846704790EA010F1CBF002049
:10035400704712F07F4F04D1400028BF40F00040A6
:10036400704712F100723CBF00F50000704700F0C6
:10037400004343F0FE4040F4000070477FEA2262ED
:1003840016BF08467FEA23630146420206BF5FEABE
:10039400412390EA010F40F4800070474FF00003BE
:1003A40004E000BF10F0004348BF40425FEA000C85
:1003B40008BF704743F0964301464FF000001CE02D
:1003C40050EA010208BF70474FF000030AE000BF83
:1003D40050EA010208BF704711F0004302D54042C1
:1003E40061EB41015FEA010C02BF84460146002033
:1003F40043F0B64308BFA3F18053A3F50003BCFA4E
:100404008CF2083AA3EBC25310DB01FA02FC6344FA
:1004140000FA02FCC2F12002BCF1004F20FA02F201
:1004240043EB020008BF20F00100704702F12002F4
:1004340001FA02FCC2F1200250EA4C0021FA02F255
:1004440043EB020008BF20EADC7070474FF0FF0C5A
:100454001CEAD0521EBF1CEAD15392EA0C0F93EA55
:100464000C0F6FD01A4480EA010C400218BF5FEAF7
:1004740041211ED04FF0006343EA501043EA51116A
:10048400A0FB01310CF00040B1F5000F3EBF490064
:1004940041EAD3715B0040EA010062F17F02FD2A68
:1004A4001DD8B3F1004F40EBC25008BF20F001004B
:1004B400704790F0000F0CF0004C08BF49024CEA62
:1004C400502040EA51207F3AC2BFD2F1FF0340EAF4
:1004D400C250704740F400004FF00003013A5DDC65
:1004E40012F1190FDCBF00F000407047C2F10002A6
:1004F400410021FA02F1C2F1200200FA02FC5FEA93
:10050400310040F1000053EA4C0308BF20EADC70DC
:10051400704792F0000F00F0004C02BF400010F44E
:10052400000F013AF9D040EA0C0093F0000F01F0FB
:10053400004C02BF490011F4000F013BF9D041EA1D
:100544000C018FE70CEAD15392EA0C0F18BF93EA1F
:100554000C0F0AD030F0004C18BF31F0004CD8D149
:1005640080EA010000F00040704790F0000F17BFD0
:1005740090F0004F084691F0000F91F0004F14D016
:1005840092EA0C0F01D142020FD193EA0C0F03D16E
:100594004B0218BF084608D180EA010000F0004071
:1005A40040F0FE4040F40000704740F0FE4040F44C
:1005B400400070474FF0FF0C1CEAD0521EBF1CEAEB
:1005C400D15392EA0C0F93EA0C0F69D0A2EB030209
:1005D40080EA010C49024FEA402037D04FF08053A3
:1005E40043EA111143EA10130CF000408B4238BF68
:1005F4005B0042F17D024FF4000C8B4224BF5B1A76
:1006040040EA0C00B3EB510F24BFA3EB510340EAC3
:100614005C00B3EB910F24BFA3EB910340EA9C0071
:10062400B3EBD10F24BFA3EBD10340EADC001B01E1
:1006340018BF5FEA1C1CE0D1FD2A3FF650AF8B4285
:1006440040EBC25008BF20F0010070470CF0004C92
:100654004CEA50207F32C2BFD2F1FF0340EAC250BD
:10066400704740F400004FF00003013A37E792F07E
:10067400000F00F0004C02BF400010F4000F013ADC
:10068400F9D040EA0C0093F0000F01F0004C02BFD7
:10069400490011F4000F013BF9D041EA0C0195E740
:1006A4000CEAD15392EA0C0F08D142027FF47DAFD9
:1006B40093EA0C0F7FF470AF084676E793EA0C0FC9
:1006C40004D14B023FF44CAF08466EE730F0004CC7
:1006D40018BF31F0004CCAD130F000427FF45CAF57
:1006E40031F000437FF43CAF5FE700BF4FF0FF3CC5
:1006F40006E000BF4FF0010C02E000BF4FF0010C18
:100704004DF804CD4FEA40024FEA41037FEA226CE0
:1007140018BF7FEA236C11D001B052EA530C18BF02
:1007240090EA010F58BFB2EB030088BFC81738BF67
:100734006FEAE17018BF40F0010070477FEA226C55
:1007440002D15FEA402C05D17FEA236CE4D15FEA51
:10075400412CE1D05DF8040B704700BF8446084685
:100764006146FFE70FB5FFF7C9FF002848BF10F146
:10077400000F0FBD4DF808EDFFF7F4FF0CBF01208B
:1007840000205DF808FB00BF4DF808EDFFF7EAFF15
:1007940034BF012000205DF808FB00BF4DF808EDD0
:1007A400FFF7E0FF94BF012000205DF808FB00BFC5
:1007B4004DF808EDFFF7D2FF94BF012000205DF84B
:1007C40008FB00BF4DF808EDFFF7C8FF34BF012058
:1007D40000205DF808FB00BF4FEA4002B2F1FE4F73
:1007E4000FD34FF09E03B3EB12620DD94FEA0023EF
:1007F40043F0004310F0004F23FA02F018BF4042C8
:1008040070474FF00000704712F1610F01D14202AE
:1008140005D110F0004008BF6FF0004070474FF062
:100824000000704742000ED2B2F1FE4F0BD34FF0DE
:100834009E03B3EB126209D44FEA002343F0004352
:1008440023FA02F070474FF00000704712F1610F75
:1008540001D1420202D14FF0FF3070474FF0000047
:10086400704700BF80B582B000AF786000F074F9C3
:1008740000F086F900220121104804F088FA2020B3
:1008840000F04EF97B681B0CDBB2184600F048F907
:100894007B681B0ADBB2184600F042F97B68DBB2C6
:1008A400184600F03DF901220121044804F06FFAD2
:1008B40000F066F900BF0837BD4680BD0010014056
:1008C40080B584B000AFF860B9601346FB8000F0D7
:1008D40043F9002201211D4804F059FA022000F0D6
:1008E4001FF9BB681B0CDBB2184600F019F9BB6892
:1008F4001B0ADBB2184600F013F9BB68DBB21846DA
:1009040000F00EF9FB88B3F5807F0ED94FF48073A5
:10091400FB800F4805F0DCFF07E0FB681B781846F6
:1009240000F0FEF8FB680133FB60FB885A1EFA8076
:10093400002BF2D101220121044804F028FA00F02E
:100944001FF900BF1037BD4680BD00BF0010014035
:10095400E078000880B586B000AFF860B96013464F
:10096400FB800023FB750023BB7500237B750023EC
:100974003B750023FB74BB687B757B7D5B423B75D9
:10098400FB881B0A9BB2FB75FB88BB757B7D002B28
:1009940024D1FB7D002B14D1FB881A46B968F86872
:1009A400FFF78EFF7BE04FF48072B968F868FFF7B9
:1009B40087FFBB6803F58073BB60FB6803F5807336
:1009C400FB60FB7D5A1EFA75002BECD1BB7D9BB2FC
:1009D4001A46B968F868FFF773FF60E0FB7D002BE7
:1009E40025D1BA7D3B7D9A421AD9BA7D3B7DD31A73
:1009F400FB743B7D9BB21A46B968F868FFF760FF49
:100A04003B7DBA681344BB603B7DFA681344FB60CA
:100A1400FB7C9BB21A46B968F868FFF751FF3EE0C9
:100A2400FB881A46B968F868FFF74AFF37E03B7D50
:100A34009BB2FA88D31AFB80FB881B0A9BB2FB7516
:100A4400FB88BB753B7D9BB21A46B968F868FFF713
:100A540037FF3B7DBA681344BB603B7DFA6813449F
:100A6400FB600DE04FF48072B968F868FFF728FF67
:100A7400BB6803F58073BB60FB6803F58073FB60A0
:100A8400FB7D5A1EFA75002BECD1BB7D002B06D0E2
:100A9400BB7D9BB21A46B968F868FFF711FF00BF27
:100AA4001837BD4680BD000080B584B000AFF86043
:100AB400B9601346FB8000220121184804F067F94D
:100AC400032000F02DF8BB681B0CDBB2184600F0C5
:100AD40027F8BB681B0ADBB2184600F021F8BB6894
:100AE400DBB2184600F01CF809E0FF2000F018F80B
:100AF40003461A46FB681A70FB680133FB60FB88E7
:100B04005A1EFA80002BF0D101220121034804F07F
:100B14003EF900BF1037BD4680BD00BF0010014044
:100B240080B586B002AF0346FB7107F10F02F91DD1
:100B34004FF4805300930123064804F0F7FD034665
:100B4400002B01D0FB7B00E0FB7B18461037BD4631
:100B540080BD00BF5004002080B500AF00220121F9
:100B6400064804F014F90620FFF7DAFF01220121F8
:100B7400024804F00CF900BF80BD00BF0010014022
:100B840080B582B000AF0023FB71002201210C4824
:100B940004F0FDF80520FFF7C3FFFF20FFF7C0FFB7
:100BA4000346FB71FB7903F00103002BF5D101220D
:100BB4000121034804F0EBF800BF0837BD4680BDAF
:100BC4000010014080B58EB000AF07F11C03002275
:100BD4001A605A609A60DA601A615A619A613B46F7
:100BE40000221A605A609A60DA601A615A619A6146
:100BF400304B4FF020421A602E4B2F4A5A602D4B37
:100C040000229A602B4B0022DA602A4B00221A61E0
:100C1400284B10225A61274B00229A61254B00224F
:100C2400DA61244B00221A62224B00225A62214BC1
:100C34004FF480529A621F4B0022DA621D4B4FF42C
:100C440080421A631B4B00225A631A4B00229A6398
:100C54000023FB610F233B621A237B620023BB62E8
:100C64001023FB6211233B6300237B6300233B605F
:100C74000F237B600123BB600023FB6010233B61D7
:100C840011237B610023BB613A4607F11C0319461B
:100C9400084804F093FF0346002B01D001F04DFCFB
:100CA400064BDB69054A43F48063D36100BF3837E0
:100CB400BD4680BD7C010020040100A0000001406D
:100CC40080B586B000AF07F1080300221A605A60AD
:100CD4009A60DA60184B1B68002B29D1164B01224D
:100CE4001A60164B5B69154A43F480735361134BC6
:100CF4005B6903F480737B607B684FF68073BB6031
:100D04000223FB6003237B6107F1080319460C48A7
:100D140003F092FE4CF6B373BB600223FB60032323
:100D24007B6107F108031946064803F085FE00E0DD
:100D340000BF1837BD4680BDC4010020001002402A
:100D4400001801400014014080B582B000AF786003
:100D5400FFF7B6FF00BF0837BD4680BD80B58AB037
:100D640000AF07F1180300221A605A609A60DA6033
:100D74006B4B9B696A4A43F040039361684B9B69E0
:100D840003F040037B617B69654B9B69644A43F0D4
:100D940010039361624B9B6903F010033B613B6951
:100DA4005F4B9B695E4A43F0040393615C4B9B6910
:100DB40003F00403FB60FB68594B9B69584A43F0FA
:100DC40008039361564B9B6903F00803BB60BB683F
:100DD400534B9B69524A43F020039361504B9B69E8
:100DE40003F020037B607B68002207214D4803F059
:100DF400CEFF012201214C4803F0C9FF0122232127
:100E04004A4803F0C4FF00224FF44051484803F01D
:100E1400BEFF00224FF48071464803F0B8FF072359
:100E2400BB610123FB6100233B6203237B6207F167
:100E3400180319463B4803F0FFFD1823BB61002348
:100E4400FB6100233B6207F118031946354803F0A0
:100E5400F3FD4FF40053BB61374BFB6101233B624D
:100E640007F118031946304803F0E6FD0123BB617E
:100E74000123FB6100233B6203237B6207F1180318
:100E84001946294803F0D8FD0123BB612A4BFB61B5
:100E940001233B6207F118031946264803F0CCFDF1
:100EA4002323BB610123FB6101233B6203237B6298
:100EB40007F1180319461D4803F0BEFD4FF44053D3
:100EC400BB610123FB6100233B6203237B6207F1C7
:100ED40018031946164803F0AFFD4FF48073BB6145
:100EE4000123FB6100233B6203237B6207F11803A8
:100EF4001946104803F0A0FD00220021062003F04B
:100F040064FD062003F07DFD00220021282003F06B
:100F14005CFD282003F075FD00BF2837BD4680BD69
:100F2400001002400018014000100140000C014074
:100F340000140140000801400000111080B582B087
:100F440000AF0346FB80FB88012B03D0B3F5005FA1
:100F540003D005E000F008F802E000F06BF800BFF1
:100F640000BF0837BD4680BD80B500AF2F4B1B784E
:100F7400002B15D1002201212D4803F008FF012286
:100F840002212B4803F003FF01222021284803F00B
:100F9400FEFE264B1B780133DAB2244B1A7042E072
:100FA400224B1B78012B15D101220121204803F08B
:100FB400EEFE002202211E4803F0E9FE0122202158
:100FC4001B4803F0E4FE194B1B780133DAB2174BCC
:100FD4001A7028E0154B1B78022B12D10122012133
:100FE400134803F0D4FE01220221114803F0CFFE7E
:100FF400002220210E4803F0CAFE0C4B00221A7076
:1010040011E0002201210A4803F0C1FE012202215D
:10101400074803F0BCFE01222021054803F0B7FE77
:10102400024B00221A7000BF80BD00BFC80100201F
:10103400000C014080B582B000AF114B1B78012B2E
:101044001AD1104A3B4692E8030083E803004FF4A8
:101054008050FFF707FC3B4608224FF480511846A6
:10106400FFF778FC08224FF480510748FFF71CFD76
:1010740001F068FA00F04AFE00BF0837BD4680BDA3
:1010840044040020487900084804002080B483B058
:1010940000AF0346FB804FF0C042FB88138000BFC3
:1010A4000C37BD4680BC704780B483B000AF0346A4
:1010B400FB80044AFB88138000BF0C37BD4680BC0C
:1010C400704700BF0000026080B483B000AF786056
:1010D40002E07B68013B7B607B68002BF9D100BF99
:1010E40000BF0C37BD4680BC7047000080B500AF20
:1010F400CF20FFF7CBFF0020FFF7D6FF8120FFF7BB
:10110400D3FF3020FFF7D0FFED20FFF7BFFF6420AF
:10111400FFF7CAFF0320FFF7C7FF1220FFF7C4FF42
:101124008120FFF7C1FFE820FFF7B0FF8520FFF71C
:10113400BBFF1020FFF7B8FF7820FFF7B5FFCB20E7
:10114400FFF7A4FF3920FFF7AFFF2C20FFF7ACFF18
:101154000020FFF7A9FF3420FFF7A6FF0220FFF7C6
:10116400A3FFF720FFF792FF2020FFF79DFFEA205F
:10117400FFF78CFF0020FFF797FF0020FFF794FF95
:10118400B120FFF783FF0020FFF78EFF1B20FFF73E
:101194008BFFB620FFF77AFF0A20FFF785FFA22016
:1011A400FFF782FFC020FFF771FF3520FFF77CFFB8
:1011B400C120FFF76BFF1120FFF776FFC520FFF773
:1011C40065FF4520FFF770FF4520FFF76DFFC7203F
:1011D400FFF75CFFA220FFF767FFF220FFF756FF3F
:1011E4000020FFF761FF2620FFF750FF0120FFF7E3
:1011F4005BFFE020FFF74AFF0F20FFF755FF262093
:10120400FFF752FF2420FFF74FFF0B20FFF74CFF9F
:101214000E20FFF749FF0920FFF746FF5420FFF790
:1012240043FFA820FFF740FF4620FFF73DFF0C20B7
:10123400FFF73AFF1720FFF737FF0920FFF734FFC6
:101244000F20FFF731FF0720FFF72EFF0020FFF7E5
:101254002BFFE120FFF71AFF0020FFF725FF1920DD
:10126400FFF722FF1B20FFF71FFF0420FFF71CFFDF
:101274001020FFF719FF0720FFF716FF2A20FFF7BA
:1012840013FF4720FFF710FF3920FFF70DFF03205E
:10129400FFF70AFF0620FFF707FF0620FFF704FF0A
:1012A4003020FFF701FF3820FFF7FEFE0F20FFF785
:1012B400FBFE3620FFF7EAFEC820FFF7F5FE2A20E2
:1012C400FFF7E4FE0020FFF7EFFE0020FFF7ECFE3F
:1012D4000020FFF7E9FEEF20FFF7E6FE2B20FFF7E3
:1012E400D5FE0020FFF7E0FE0020FFF7DDFE012021
:1012F400FFF7DAFE3F20FFF7D7FE3A20FFF7C6FEDE
:101304005520FFF7D1FE1120FFF7C0FE0348FFF779
:10131400DBFE2920FFF7BAFE00BF80BDFCBF020040
:1013240080B500AF012000F00DF800F027F8FFF7BA
:10133400DDFE034B1B78184600F038F800BF80BD73
:101344001C00002080B582B000AF0346FB71FB791E
:10135400002B06D000224FF48051074803F017FDFC
:1013640005E001224FF48051034803F010FD00BF53
:101374000837BD4680BD00BF0014014080B500AFF2
:1013840000220221084803F002FD40F6FF20FFF787
:101394009BFE01220221044803F0F9FC40F6FF20E1
:1013A400FFF792FE00BF80BD0018014080B582B0F7
:1013B40000AF0346FB71FB79072B60D8324AFB79F7
:1013C4001370FB7903F00103DBB2002B07D12F4B21
:1013D400F0221A802E4B4FF4A0721A8006E02B4B99
:1013E4004FF4A0721A802A4BF0221A803620FFF79D
:1013F4004DFEFB795B011BB243F008031BB29BB2A9
:101404001846FFF751FE2A20FFF740FE0020FFF7A1
:101414004BFE0020FFF748FE1C4B1B88013B1B12B0
:101424009BB2DBB29BB21846FFF73EFE174B1B88FC
:10143400013B9BB2DBB29BB21846FFF735FE2B2073
:10144400FFF724FE0020FFF72FFE0020FFF72CFEFD
:101454000F4B1B88013B1B129BB2DBB29BB218469D
:10146400FFF722FE0A4B1B88013B9BB2DBB29BB207
:101474001846FFF719FE2C20FFF708FE00E000BF16
:101484000837BD4680BD00BF1C00002018000020A6
:101494001A00002090B583B000AF044608461146F8
:1014A4001A462346FB800346BB800B467B801346CB
:1014B4003B802A20FFF7EAFDFB881B0A9BB21846F3
:1014C400FFF7F2FDFB88DBB29BB21846FFF7ECFD99
:1014D400FA887B881344013B1B129BB21846FFF722
:1014E400E3FDFA887B8813449BB2013B9BB2DBB2D9
:1014F4009BB21846FFF7D8FD2B20FFF7C7FDBB882A
:101504001B0A9BB21846FFF7CFFDBB88DBB29BB228
:101514001846FFF7C9FDBA883B881344013B1B12E8
:101524009BB21846FFF7C0FDBA883B8813449BB2B0
:10153400013B9BB2DBB29BB21846FFF7B5FD00BF7F
:101544000C37BD4690BD80B582B000AF03460A4655
:10155400FB801346BB80B988F88801230122FFF77A
:1015640099FF00BF0837BD4680BD80B584B000AF89
:1015740078600B467B800023FB602C20FFF786FD00
:101584000023FB6006E07B881846FFF78DFDFB68AF
:101594000133FB60FA687B689A42F4D300BF00BF52
:1015A4001037BD4680BD000090B583B000AF04463F
:1015B400084611461A462346FB800346BB800B4669
:1015C4007B8013463B803B887A88B988F888FFF78C
:1015D40061FF7B883A8802FB03F31A46044B1B889D
:1015E40019461046FFF7C1FF00BF0C37BD4690BD3A
:1015F4002400002080B582B000AF03460A46FB8079
:101604001346BB800C4B1B88FA889A4210D20B4BB2
:101614001B88BA889A420BD2BA88FB8811461846AE
:10162400FFF791FF064B1B8819460120FFF79DFF2A
:1016340000BF0837BD4680BD180000201A000020F6
:10164400CA01002090B58DB000AF0446084611468B
:101654001A462346FB800346BB800B467B80134619
:101664003B8000237B6200233B627A88FB88D31A89
:10167400FB613A88BB88D31ABB61FB88BB85BB88F6
:101684007B85FB69002B02DD01233B610BE0FB69D9
:10169400002B02D100233B6105E04FF0FF333B6197
:1016A400FB695B42FB61BB69002B02DD0123FB602C
:1016B4000BE0BB69002B02D10023FB6005E04FF077
:1016C400FF33FB60BB695B42BB61FA69BB699A4249
:1016D40002DDFB697B6101E0BB697B610023FB8563
:1016E4002AE07A8DBB8D11461846FFF783FF7A6A8C
:1016F400FB6913447B623A6ABB6913443B627A6AAE
:101704007B699A4208DD7A6A7B69D31A7B623B69FA
:101714009AB2BB8D1344BB853A6A7B699A4208DD51
:101724003A6A7B69D31A3B62FB689AB27B8D134495
:101734007B85FB8D0133FB85FA8D7B6901339A42EE
:10174400CFDD00BF00BF3437BD4690BD90B583B038
:1017540000AF0446084611461A462346FB8003465A
:10176400BB800B467B8013463B803B7E002B11D015
:101774003B887A88B988F888FFF78CFE7B883A889A
:1017840002FB03F31A46264B1B8819461046FFF743
:10179400ECFE41E0FA887B8813449BB2013B9AB289
:1017A400BB88B988F888FFF74DFFBA883B88134493
:1017B4009BB2013B99B2FA887B8813449BB2013BEC
:1017C4009CB2BA883B8813449BB2013B9BB2F88815
:1017D4002246FFF737FFBA883B8813449BB2013B8C
:1017E4009BB2FA88B988F888FFF72CFFFA887B88BF
:1017F40013449BB2013B98B2FA887B8813449BB292
:10180400013B9CB2BA883B8813449BB2013B9BB218
:10181400B9882246FFF716FF00BF0C37BD4690BDBE
:10182400CA01002090B585B000AF044608461146B1
:101834001A462346FB800346BB800B467B80134637
:101844007B700023FB817B88BB817B885B009BB220
:10185400C3F103039BB27B81EAE07B78002B67D062
:10186400FB893B815DE0FA89FB88134498B23A898D
:10187400BB8813449BB21946FFF7BCFEFB89FA8868
:10188400D31A98B23A89BB8813449BB21946FFF71E
:10189400B1FE3B89FA88D31A98B2FA89BB881344FB
:1018A4009BB21946FFF7A6FE3B89FA88D31A98B271
:1018B400FB89BA88D31A9BB21946FFF79BFEFB89B2
:1018C400FA88D31A98B23B89BA88D31A9BB21946BC
:1018D400FFF790FEFA89FB88134498B23B89BA88D3
:1018E400D31A9BB21946FFF785FE3A89FB88134445
:1018F40098B2FB89BA88D31A9BB21946FFF77AFECD
:101904003A89FB88134498B2FA89BB8813449BB282
:101914001946FFF76FFEB7F908309BB201339BB24B
:101924003B81B7F90820B7F90C309A429BDD57E0A8
:10193400FA89FB88134498B2BA89BB8813449BB2D2
:101944001946FFF757FEFB89FA88D31A98B2BA8969
:10195400BB8813449BB21946FFF74CFEBB89FA8837
:10196400D31A98B2FA89BB8813449BB21946FFF77D
:1019740041FEBB89FA88D31A98B2FB89BA88D31A74
:101984009BB21946FFF736FEFB89FA88D31A98B240
:10199400BB89BA88D31A9BB21946FFF72BFEFA8982
:1019A400FB88134498B2BB89BA88D31A9BB21946F0
:1019B400FFF720FEBA89FB88134498B2FB89BA88E2
:1019C400D31A9BB21946FFF715FEBA89FB88134454
:1019D40098B2FA89BB8813449BB21946FFF70AFEF2
:1019E400B7F90E309BB201339BB2FB81B7F90A30D1
:1019F400002B09DAFB899B009AB27B8913449BB2C2
:101A040006339BB27B8113E0B7F90E20B7F90C3093
:101A1400D31A9BB29B009AB27B8913449BB20A33BC
:101A24009BB27B81B7F90C309BB2013B9BB2BB816B
:101A3400B7F90E20B7F90C309A427FF70EAF00BF0A
:101A440000BF1437BD4690BD80B586B000AF0346D5
:101A5400FB800B46BB801346FB70FB789BB2203B9C
:101A6400BB82294B1B689B881A46274B1B68DB8863
:101A740002FB03F3002B00DA0733DB10FB74224B69
:101A84001B681B68BA8AF97C01FB02F21344FB60F1
:101A94001D4B1B689A881C4B1B68DB88B988F88827
:101AA400FFF7F8FC2C20FFF7F1FA0023FB7522E086
:101AB4000023BB7519E0FB7DFA6813441B781946B3
:101AC400BB7D802242FA03F30B40002B05D00F4B61
:101AD4001B881846FFF7E8FA04E00D4B1B881846EC
:101AE400FFF7E2FABB7D0133BB75BB7D072BE2D95F
:101AF400FB7D0133FB75FA7DFB7C9A42D8D300BF92
:101B040000BF1837BD4680BD20000020CA01002058
:101B14002400002080B584B000AF03463960FB8008
:101B24000023FB812DE0FB891A4A12689288134432
:101B3400194A1288934207DD0023FB81154B1B6869
:101B4400DA88FB881344FB80FB88124A1268D28827
:101B54001344124A1288934203DD0023FB810023BD
:101B6400FB803B681A78F988FB891846FFF76CFFFD
:101B74003B6801333B60074B1B689A88FB8913441D
:101B8400FB813B681B78002BCDD100BF00BF103711
:101B9400BD4680BD20000020180000201A0000204F
:101BA40080B582B000AF03463A60FB800B46BB8031
:101BB4002DE0FB881A4A126892881344194A128845
:101BC400934207DD0023FB80154B1B68DA88BB8832
:101BD4001344BB80BB88124A1268D2881344124A49
:101BE4001288934203DD0023FB800023BB803B6803
:101BF4001A78B988FB881846FFF726FF3B6801333B
:101C04003B60074B1B689A88FB881344FB803B6846
:101C14001B78002BCDD100BF00BF0837BD4680BD67
:101C240020000020180000201A00002080B483B097
:101C340000AF7860034A7B68136000BF0C37BD4671
:101C440080BC70472000002080B400AF024B1B68AA
:101C54001846BD4680BC70472000002080B483B085
:101C640000AF03460A46FB801346BB80054AFB8847
:101C74001380054ABB88138000BF0C37BD4680BC67
:101C8400704700BFCA0100202400002080B483B044
:101C940000AF0346FB80044AFB88138000BF0C3767
:101CA400BD4680BC704700BFCA01002080B500AFAC
:101CB4004FF6FF714FF6FF70FFF7D0FF4FF4A0739C
:101CC400F02200210020FFF76FFC4FF6FF71002087
:101CD400FFF7C4FF0A48FFF7A9FF0A4A3E210C2078
:101CE400FFF75EFF4FF6FF714FF47840FFF7B6FF42
:101CF400054AD2212D20FFF753FF00BF80BD00BF4E
:101D040010000020507900085C79000880B500AF0D
:101D14004FF6FF714FF6FF70FFF7A0FF4FF4A0736B
:101D2400F02200210020FFF73FFC00F00DF800F046
:101D34009BF900F0C7F900F017FA00F053FA00F02D
:101D440089FA00BF80BD000080B58CB002AF0020CE
:101D5400FFF79CFF00237B6221E000233B6218E035
:101D64007B6A9BB21A46D200D31A9BB2143398B240
:101D74003B6A9BB21A46D200D31A9BB2143399B26F
:101D84000123009307230722FFF7E0FC3B6A01339A
:101D94003B623B6A1D2BE3DD7B6A13337B627B6A08
:101DA400132BDADD0023FB6121E00023BB6118E083
:101DB400BB699BB21A46D200D31A9BB2143398B2B1
:101DC400FB699BB21A46D200D31A9BB2143399B260
:101DD4000123009307230722FFF7B8FCBB690133F3
:101DE400BB61BB69132BE3DDFB691D33FB61FB693D
:101DF4001D2BDADD9B4BD3F86032053B7B6143E05E
:101E0400984BD3F86432053B3B6133E07B69002B8C
:101E14002CDB7B69132B29DC3B69002B26DB3B691C
:101E24001D2B23DC8F497A6913461B019B1A5B0027
:101E3400CA183B69134408331B78002B17D17B69FC
:101E44009BB21A46D200D31A9BB2143398B23B69A0
:101E54009BB21A46D200D31A9BB2143399B201230F
:101E6400009307230722FFF771FC00E000BF3B69E2
:101E740001333B617B4BD3F8643205333A699A42B0
:101E8400C4DD7B6901337B61764BD3F86032053363
:101E94007A699A42B4DD4FF6E070FFF7F7FE714BB2
:101EA400D3F868329BB21A46D200D31A9BB21433C9
:101EB40098B26C4BD3F86C329BB21A46D200D31A48
:101EC4009BB2143399B20123009307230722FFF72F
:101ED4003DFC4FF4FC60FFF7D9FE624BD3F870323F
:101EE4009BB21A46D200D31A9BB2143398B25D4BFC
:101EF400D3F874329BB21A46D200D31A9BB214336D
:101F040099B20123009307230722FFF71FFC002047
:101F1400FFF7BCFE534BD3F86832043BFB6043E04D
:101F2400504BD3F86C32043BBB6033E0FB68002BAE
:101F34002CDBFB68132B29DCBB68002B26DBBB687E
:101F44001D2B23DC4749FA6813461B019B1A5B00CF
:101F5400CA18BB68134408331B78002B17D1FB68DD
:101F64009BB21A46D200D31A9BB2143398B2BB6800
:101F74009BB21A46D200D31A9BB2143399B20123EE
:101F8400009307230722FFF7E1FB00E000BFBB68D3
:101F94000133BB60334BD3F86C320433BA689A42D2
:101FA400C4DDFB680133FB602E4BD3F86832043385
:101FB400FA689A42B4DD2B4BD3F87032043B7B6051
:101FC40043E0284BD3F87432043B3B6033E07B6836
:101FD400002B2CDB7B68132B29DC3B68002B26DBD6
:101FE4003B681D2B23DC1F497A6813461B019B1A8F
:101FF4005B00CA183B68134408331B78002B17D1C5
:102004007B689BB21A46D200D31A9BB2143398B29F
:102014003B689BB21A46D200D31A9BB2143399B2CE
:102024000123009307230722FFF790FB00E000BF82
:102034003B6801333B600B4BD3F8743204333A688A
:102044009A42C4DD7B6801337B60064BD3F870325F
:1020540004337A689A42B4DD00BF00BF2837BD4616
:1020640080BD00BFCC01002080B582B000AF022348
:102074007B601F20FFF70AFE104BD3F860329BB23F
:102084001A46D200D31A9BB2173398B20B4BD3F82B
:1020940064329BB21A46D200D31A9BB2173399B258
:1020A4007B689AB2064B1B789BB2D31A9AB201236F
:1020B400FFF7B8FB00BF0837BD4680BDCC01002048
:1020C4004504002080B582B002AF4FF6FF710020B6
:1020D400FFF7C4FD002300931E233C22F0215A2065
:1020E400FFF734FB002300931E233C224FF48C7132
:1020F4005A20FFF72BFB002300931E233C224FF4AE
:1021040082711420FFF722FB002300931E233C223C
:102114004FF48271A020FFF719FB0E48FFF786FDEC
:102124000D4AF7217020FFF73BFD0C4A40F21F11C6
:102134006820FFF735FD0A4A40F20B112220FFF711
:102144002FFD084A40F20B11AA20FFF729FD00BF1A
:10215400BD4680BD0000002064790008687900084D
:10216400707900087879000880B59AB000AF4FF60E
:10217400FF710020FFF772FD1548FFF757FD154A60
:102184001421AA20FFF70CFD00237B6007F108034C
:1021940060220021184604F025FB0F4B1A683B1DF2
:1021A4000E49184604F09CFB4FF6FF714FF478403B
:1021B400FFF754FD0A48FFF739FD3B1D1A46242159
:1021C400AA20FFF7EDFC00BF6837BD4680BD00BF05
:1021D4000000002080790008CC01002088790008E4
:1021E4000800002080B59AB000AF4FF6FF710020C0
:1021F400FFF734FD1248FFF719FD124A4621AA20C1
:10220400FFF7CEFC00237B6007F108036022002166
:10221400184604F0E7FA0C4B5A683B1D0B49184664
:1022240004F05EFB0A48FFF701FD3B1D1A465621E8
:10223400AA20FFF7B5FC00BF6837BD4680BD00BFCC
:10224400000000208C790008CC0100208879000867
:102254000800002080B582B002AF4FF6FF71002065
:10226400FFF7FCFC002300931E233C229621AA20A6
:10227400FFF76CFA0548FFF7D9FC054A9D21AC200D
:10228400FFF78EFC00BFBD4680BD00BF00000020EC
:102294009479000880B584B002AF0346FB7148F21C
:1022A400104148F21040FFF7D9FC3D48FFF7BEFC4F
:1022B400FB79013B052B6FD801A252F823F000BF34
:1022C400DD22000801230008292300085123000807
:1022D4009D23000879230008012300931E233C2238
:1022E400F0215A20FFF732FA4FF6FF70FFF7CEFCC9
:1022F4002C4AF7217020FFF753FC4DE00123009393
:102304001E233C224FF48C715A20FFF71FFA4FF61C
:10231400FF70FFF7BBFC244A40F21F116820FFF74F
:102324003FFC39E0012300931E233C224FF48271C9
:102334001420FFF70BFA4FF6FF70FFF7A7FC1B4AB8
:1023440040F20B112220FFF72BFC25E00123009320
:102354001E233C224FF48271A020FFF7F7F94FF6B9
:10236400FF70FFF793FC124A40F20B11AA20FFF70B
:1023740017FC11E0012300931E233C229621AA207E
:10238400FFF7E4F94FF6FF70FFF780FC094A9D213F
:10239400AC20FFF705FC00BF00BF0837BD4680BD79
:1023A400000000206479000868790008707900084A
:1023B400787900089479000880B500AF4FF6FF7172
:1023C4004FF47840FFF74AFC0448FFF72FFC044A17
:1023D400FF211420FFF7E4FB00BF80BD10000020A4
:1023E4009C79000880B500AF4FF6FF714FF6FF707F
:1023F400FFF734FC4FF4A073F02200210020FFF714
:10240400D3F8FFF7A1FCFFF72FFEFFF7ADFEFFF7B0
:10241400E9FEFFF71FFFFFF7CFFF00BF80BD0000FD
:1024240080B500AF02F074F900F042F8FEF796FCB4
:1024340002F0D2F8FEF7C6FB00F034FD00F0D4FE43
:1024440000F008FFFEF76CFF154B00221A70002104
:10245400062001F0BDFE00220221124802F097FC82
:102464004FF6FF714FF6FF70FFF7F8FB4FF4A073C0
:10247400F02200210020FFF797F8FFF717FC0A4B22
:1024840000221A70094803F035FC00F05BF800F0F4
:10249400B5FA02F05DF80A2002F09CF9F7E700BFF4
:1024A40045040020000C014044040020F4040020F2
:1024B40080B590B000AF07F1180328220021184618
:1024C40004F090F93B1D00221A605A609A60DA60A9
:1024D4001A610123BB614FF48033FB6100233B622B
:1024E4000123BB6202237B634FF48033BB634FF44D
:1024F400E013FB6307F11803184602F079FC034666
:10250400002B01D000F019F80F237B600223BB607D
:102514000023FB604FF480633B6100237B613B1D20
:102524000221184602F0E6FE0346002B01D000F01B
:1025340004F800BF4037BD4680BD80B400AF72B61A
:1025440000BFFEE780B5ADF6681D00AF08224FF46A
:1025540080515148FEF7A8FA4F4B1B68B3F1CC3FAA
:1025640017D14D4B5B68B3F57A7F03DA4A4B5B684E
:10257400002B20DC484B40F2E7325A604FF4805085
:10258400FEF770F908224FF480514348FEF7E2F950
:1025940011E0414B40F2E7325A603F4B4FF0CC32EE
:1025A4001A604FF48050FEF75DF908224FF4805111
:1025B4003948FEF7CFF908224FF480513648FEF728
:1025C40073FA354B5B68354A536007F66813A3F614
:1025D4006813334A184611464FF416631A4604F03A
:1025E400F3F82E4B00221A602C4B0222C3F860220F
:1025F4002A4B0222C3F86422284B0222C3F8682221
:10260400264B0222C3F86C22244B1122C3F87022F9
:10261400224B1B22C3F874220023C7F8643930E02C
:102624000023C7F8603923E0D7F8642913461B0157
:102634009B1A5B001A46D7F860391A4407F66813E8
:10264400A3F6681353F82230D8B21449D7F8642992
:1026540013461B019B1A5B00CA18D7F86039134450
:10266400083302461A70D7F860390133C7F8603965
:10267400D7F860391D2BD7DDD7F864390133C7F893
:102684006439D7F86439132BCADD00BF00BF07F6DD
:102694006817BD4680BD00BF48040020CC0100205F
:1026A400A879000880B582B000AF0346FB71FB79BE
:1026B400032B00F27B8101A252F823F0D1260008FB
:1026C40045280008FD2800088B270008BB4BD3F8D9
:1026D4006432002B40F36C81B84BD3F86022B74BC3
:1026E400D3F86432591EB54813461B019B1A5B008C
:1026F40003440B4408331B78002B00F05B81AF4B81
:10270400D3F86022AD4BD3F86432591EAB4813465C
:102714001B019B1A5B0003440B4408331B78012BF9
:1027240024D0A64BD3F86022A44BD3F86432591EAC
:10273400A24813461B019B1A5B0003440B44083355
:102744001B78032B12D09D4BD3F860229B4BD3F8FC
:102754006432591E994813461B019B1A5B000344BB
:102764000B4408331B78022B40F02681934B1B68E3
:102774000133924A1360914BD3F86432013B8F4A80
:10278400C2F8643218E18D4BD3F864321C2B00F389
:1027940017818A4BD3F86022884BD3F86432591CD2
:1027A400864813461B019B1A5B0003440B44083301
:1027B4001B78002B00F00681804BD3F860227F4BFE
:1027C400D3F86432591C7D4813461B019B1A5B00E5
:1027D40003440B4408331B78012B24D0774BD3F8E4
:1027E4006022764BD3F86432591C744813461B019B
:1027F4009B1A5B0003440B4408331B78022B12D052
:102804006E4BD3F860226D4BD3F86432591C6B487D
:1028140013461B019B1A5B0003440B4408331B78CB
:10282400032B40F0D180654B1B680133634A13606E
:10283400624BD3F864320133604AC2F86432C3E0B5
:102844005E4BD3F86032002B40F3C0805B4BD3F86F
:1028540060325A1E594BD3F86412584813461B0170
:102864009B1A5B0003440B4408331B78002B00F0D5
:10287400AF80524BD3F860325A1E504BD3F86412D7
:102884004E4813461B019B1A5B0003440B44083358
:102894001B78012B23D0494BD3F860325A1E474B87
:1028A400D3F86412454813461B019B1A5B0003448A
:1028B4000B4408331B78022B11D0404BD3F8603201
:1028C4005A1E3E4BD3F864123C4813461B019B1A14
:1028D4005B0003440B4408331B78032B7AD1374B3A
:1028E4001B680133354A1360344BD3F86032013B23
:1028F400324AC2F860326DE0304BD3F860321C2BA0
:102904006ADC2E4BD3F860325A1C2C4BD3F8641279
:102914002A4813461B019B1A5B0003440B440833EB
:102924001B78002B5AD0254BD3F860325A1C234B0A
:10293400D3F86412214813461B019B1A5B0003441D
:102944000B4408331B78012B23D01C4BD3F8603283
:102954005A1C1A4BD3F86412184813461B019B1ACD
:102964005B0003440B4408331B78022B11D0134B38
:10297400D3F860325A1C114BD3F864120F48134633
:102984001B019B1A5B0003440B4408331B78032B85
:1029940026D10A4B1B680133084A1360074BD3F84E
:1029A40060320133054AC2F8603219E000BF18E012
:1029B40000BF16E000BF14E000BF12E0CC0100200D
:1029C40000BF0EE000BF0CE000BF0AE000BF08E05B
:1029D40000BF06E000BF04E000BF02E000BF00E06B
:1029E40000BF054B1B68B3F57A7F01DB00F048F8A4
:1029F40000BF0837BD4680BDCC01002080B500AFC4
:102A04001C4B1B78012B33D11B4BD3F860221A4B80
:102A1400D3F870329A422AD1174BD3F86422164B5A
:102A2400D3F874329A4222D14FF6FF714FF47840B2
:102A3400FFF714F9022000F0B5F90F4B1A680E4B9A
:102A44005B689A4211DA0C4B1B680C4A53600B4BBF
:102A54004FF0CC321A604FF48050FDF703FF082288
:102A64004FF480510548FDF775FFFFF7BBFC00BF2D
:102A740000BF80BD44040020CC0100204804002095
:102A840080B400AF094BD3F86832084AC2F8603208
:102A9400064BD3F86C32054AC2F86432034B002269
:102AA4001A6000BFBD4680BC704700BFCC01002047
:102AB40080B582B000AF03460A46FB801346BB8054
:102AC400B7F90630592B10DDB7F90630962B0CDC1C
:102AD400B7F90430EF2B08DDB7F90430B3F5877F7D
:102AE40003DA0120FFF7D6FB59E0B7F90630592B7A
:102AF40011DDB7F90630962B0DDCB7F90430B3F5C8
:102B04008C7F08DBB7F90430B3F59B7F03DA02202E
:102B1400FFF7C0FB43E0B7F90630132B11DDB7F91B
:102B24000630502B0DDCB7F90430B3F5827F08DB97
:102B3400B7F90430B3F5917F03DA0320FFF7AAFB5A
:102B44002DE0B7F906309F2B11DDB7F90630DC2BE9
:102B54000DDCB7F90430B3F5827F08DBB7F9043034
:102B6400B3F5917F03DA0420FFF794FB17E0B7F97C
:102B74000630A92B0FDDB7F90630E62B0BDCB7F9CD
:102B84000430952B07DDB7F90430B32B03DC0620A2
:102B9400FFF780FB03E00520FFF77CFB00BF00BFCD
:102BA4000837BD4680BD000080B582B000AF034643
:102BB4000A46FB801346BB80B7F90630592B19DD52
:102BC400B7F90630962B15DCB7F90430EF2B11DD7D
:102BD400B7F90430B3F5877F0CDA0020FFF762FD04
:102BE400434803F087F801224FF48071414802F012
:102BF400CEF877E0B7F90630592B1ADDB7F906306D
:102C0400962B16DCB7F90430B3F58C7F11DBB7F9DA
:102C14000430B3F59B7F0CDA0320FFF743FD3448FF
:102C240003F068F801224FF48071324802F0AFF8E3
:102C340058E0B7F90630132B1ADDB7F90630502BDC
:102C440016DCB7F90430B3F5827F11DBB7F9043031
:102C5400B3F5917F0CDA0120FFF724FD244803F03B
:102C640049F801224FF48071224802F090F839E0CB
:102C7400B7F906309F2B1ADDB7F90630DC2B16DCCA
:102C8400B7F90430B3F5827F11DBB7F90430B3F53B
:102C9400917F0CDA0220FFF705FD154803F02AF8AE
:102CA40001224FF48071134802F071F81AE0B7F969
:102CB4000630A92B16DDB7F90630E62B12DCB7F97E
:102CC4000430952B0EDDB7F90430B32B0ADCFFF783
:102CD400D7FE074803F00EF801224FF4807105482F
:102CE40002F055F8FFF712F800BF0837BD4680BD63
:102CF400AC0400200008014080B582B000AF034658
:102D04000A46FB801346BB80B7F90630A92B0FDDBA
:102D1400B7F90630E62B0BDCB7F90430952B07DD49
:102D2400B7F90430B32B03DC0620FFF7B3FA03E052
:102D34000520FFF7AFFA00BF00BF0837BD4680BDCE
:102D440080B582B000AF03460A46FB801346BB80C1
:102D5400B7F90630A92B1DDDB7F90630E62B19DCCF
:102D6400B7F90430952B15DDB7F90430B32B11DC1A
:102D7400FFF786FE094802F0BDFF01224FF480717F
:102D8400074802F004F8012000F00CF8FFF7DAFB22
:102D9400FEF7BCFF00BF0837BD4680BDAC04002071
:102DA4000008014080B483B000AF78607B68DAB279
:102DB400034B1A7000BF0C37BD4680BC704700BF80
:102DC4004404002080B500AF0120FFF7EBFF064864
:102DD40002F090FF01224FF48071044801F0D7FF04
:102DE400FEF794FF00BF80BDAC0400200008014042
:102DF40080B582B000AF03460A46FB801346BB8011
:102E0400104B1B78022B0FD0022B17DC002B14D095
:102E1400012B00D012E0B7F90420B7F906301146AF
:102E24001846FFF745FE09E0B7F90420B7F9063064
:102E340011461846FFF760FF00E000BF00BF0837E7
:102E4400BD4680BD4404002080B582B000AF034677
:102E54000A46FB801346BB80114B1B78022B12D011
:102E6400022B19DC002B02D0012B03D014E0FFF756
:102E7400A9FF11E0B7F90420B7F906301146184646
:102E8400FFF792FE08E0B7F90420B7F906301146BF
:102E94001846FFF755FFFFE700BF0837BD4680BD62
:102EA4004404002080B500AF174B184A1A60164B33
:102EB4004FF482725A60144B00229A60124B002223
:102EC400DA60114B02221A610F4B01225A610E4B38
:102ED4004FF400729A610C4B0822DA610A4B00220B
:102EE4001A62094B00225A62074B00229A62064B6F
:102EF4000A22DA62044802F095FB0346002B01D053
:102F0400FFF71BFB00BF80BD5004002000300140D0
:102F140080B588B000AF786007F1100300221A6012
:102F24005A609A60DA607B681B681B4A93422FD10F
:102F34001A4B9B69194A43F480539361174B9B695D
:102F440003F48053FB60FB68144B9B69134A43F002
:102F540004039361114B9B6903F00403BB60BB68DA
:102F6400A0233B6102237B610323FB6107F1100370
:102F740019460B4801F060FD40233B6100237B614F
:102F84000023BB6107F110031946054801F054FD05
:102F940000BF2037BD4680BD003001400010024014
:102FA4000008014080B485B000AF154B9B69144AFA
:102FB40043F001039361124B9B6903F00103BB606F
:102FC400BB680F4BDB690E4A43F08053D3610C4B53
:102FD400DB6903F080537B607B680A4B5B68FB60B2
:102FE400FB6823F0E063FB60FB6843F08063FB60F5
:102FF400044AFB68536000BF1437BD4680BC704769
:10300400001002400000014080B400AFFEE780B42D
:1030140000AFFEE780B400AFFEE780B400AFFEE788
:1030240080B400AFFEE780B400AF00BFBD4680BCF3
:10303400704780B400AF00BFBD4680BC704780B409
:1030440000AF00BFBD4680BC704780B500AF01F043
:10305400A5FB00BF80BD80B500AF012001F0B0FE2C
:1030640000BF80BD80B500AF4FF4005001F0A8FE52
:1030740000BF80BD80B500AF024802F0C9FE00BFAA
:1030840080BD00BFAC04002080B500AF024802F050
:10309400BFFE00BF80BD00BFF404002080B586B031
:1030A40000AFF860B9607A6000237B610AE0AFF397
:1030B40000800146BB685A1CBA60CAB21A707B69A8
:1030C40001337B617A697B689A42F0DB7B6818463E
:1030D4001837BD4680BD80B586B000AFF860B960D2
:1030E4007A6000237B6109E0BB685A1CBA601B78D4
:1030F400184601F05FFA7B6901337B617A697B686A
:103104009A42F1DB7B6818461837BD4680BD80B40F
:1031140083B000AF78604FF0FF3318460C37BD46DC
:1031240080BC704780B483B000AF786039603B687E
:103134004FF400525A60002318460C37BD4680BC39
:10314400704780B483B000AF7860012318460C3711
:10315400BD4680BC704780B485B000AFF860B960EC
:103164007A60002318461437BD4680BC70470000BF
:1031740080B586B000AF7860144A154BD31A7B61D2
:103184007B693B61134B1B68002B02D1114B124A24
:103194001A60104B1A687B6813443A699A4207D242
:1031A40003F0E8FA03460C221A604FF0FF3309E0FB
:1031B400084B1B68FB60074B1A687B681344054A7D
:1031C4001360FB6818461837BD4680BD0000012017
:1031D40000040000A8040020A805002080B400AF6B
:1031E40000BFBD4680BC704780B582B000AF3B468F
:1031F40000221A605A60154B154A1A60134B472275
:103204005A60124B00229A60104B40F2E732DA60A7
:103214000E4B80229A610D4802F01DFD0346002BDF
:1032240001D0FFF78AF900233B6000237B603B4613
:103234001946064802F092FF0346002B01D0FFF71F
:103244007CF900BF0837BD4680BD00BFAC04002038
:103254000010004080B582B000AF3B4600221A60E7
:103264005A60154B154A1A60134B47225A60124B89
:1032740000229A60104B40F2E732DA600E4B802253
:103284009A610D4802F0E7FC0346002B01D0FFF7DA
:1032940054F900233B6000237B603B4619460648F3
:1032A40002F05CFF0346002B01D0FFF746F900BF94
:1032B4000837BD4680BD00BFF40400200014004060
:1032C40080B584B000AF78607B681B681A4A93426B
:1032D40014D11A4BDB69194A43F01003D361174B1D
:1032E400DB6903F01003FB60FB6800220021362039
:1032F40001F06BFB362001F084FB18E07B681B684F
:103304000F4A934213D10D4BDB690C4A43F020035F
:10331400D3610A4BDB6903F02003BB60BB68002266
:103324000021372001F051FB372001F06AFB00BF78
:103334001037BD4680BD00BF0010004000100240A1
:103344000014004080B584B002AF78607B685A4AAC
:10335400934216D1594B1B680133584A1360574B9B
:103364001B68012B40F2A480534802F023FD534B09
:1033740000221A6000224FF48071514801F007FDC9
:1033840096E07B684F4A934240F092804E4B1B6814
:1033940001334D4A13604C4B1B68B3F5FA7FC0F000
:1033A40087804A4B1B78002B02D0012B24D07CE071
:1033B400474B1B78002B11D04FF6FF714FF4784028
:1033C400FEF74CFC4348FEF731FC434AD2212D2042
:1033D400FEF7E6FB3E4B00221A7066E04FF6FF70E4
:1033E400FEF754FC20239022D2212D20FEF7DCF896
:1033F400374B01221A7058E0354B1B78002B03D051
:10340400334B00221A7002E0314B01221A70334B05
:10341400D3F86022314BD3F86412304813461B01B1
:103424009B1A5B0003440B4408331B78032B1ED800
:1034340001A252F823F000BF4D34000855340008AF
:103444005F340008693400080020FEF71FFC0FE019
:103454004FF6FF70FEF71AFC0AE04FF6E070FEF735
:1034640015FC05E04FF4FC60FEF710FC00E000BF23
:103474001A4BD3F860329BB21A46D200D31A9BB2CD
:10348400143398B2154BD3F864329BB21A46D20067
:10349400D31A9BB2143399B2012300930723072252
:1034A400FEF754F9FEF7E0FD00BF074B00221A6057
:1034B40000BF0837BD4680BDAC0400203C05002099
:1034C40000080140F40400204005002044040020CA
:1034D400450400201000002008830008CC010020CF
:1034E40080B485B000AF78600023FB600AE00C2351
:1034F400FB7200BFFB7A5A1EFA72002BFAD1FB68EA
:103504000133FB607B68FA689A42F0D300BF00BFC6
:103514001437BD4680BC704780B584B000AF034605
:10352400FB71002204211D4801F031FC002201211D
:103534001A4801F02CFC0023FB7327E0FA79FB7B8B
:10354400C3F1070342FA03F303F00103002B05D090
:1035540001220421114801F01AFC04E00022042194
:103564000E4801F014FC0520FFF7BAFF01220121E7
:103574000A4801F00CFC0520FFF7B2FF00220121EC
:10358400064801F004FCFB7B0133FB73FB7B072B38
:10359400D4D900BF00BF1037BD4680BD001801401C
:1035A40080B582B000AF0023BB80002204211948FB
:1035B40001F0EDFB01220121164801F0E8FB002394
:1035C400FB711EE000220121124801F0E0FB0821FA
:1035D400104801F0C5FB03467B807A88FB79C3F170
:1035E4000B0302FA03F31AB2B7F9043013431BB204
:1035F400BB8001220121074801F0C9FBFB7901339B
:10360400FB71FB790B2BDDD9BB8818460837BD4607
:1036140080BD00BF0018014080B582B000AF0346F2
:10362400FB71FB791846FFF777FFFFF7B9FF0346F5
:1036340018460837BD4680BD80B584B000AF7860B9
:1036440039609020FFF7E8FF0346FB810120FFF774
:1036540047FFD020FFF7E0FF0346BB817B68FA8970
:103664001A803B68BA891A8000BF1037BD4680BDF6
:1036740080B592B000AF7860002387F8473007F137
:10368400080328220021184603F0ACF807F13002A1
:1036940007F1320311461846FFF7CEFF97F847307B
:1036A400B7F932205B0048333B4423F8402C97F8A9
:1036B4004730B7F930200A335B0048333B4423F8E2
:1036C400402C97F84730013387F847301021714870
:1036D40001F046FB0346002B03D197F84730092B32
:1036E400D4D910216B4801F03BFB0346002B02D0D8
:1036F400694B00221A7097F847300A2B40F0C480B7
:10370400B7F908303B643B6CFB63B7F91C30BB630F
:10371400BB6B7B63012387F846302BE097F8463078
:103724005B0048333B4433F9403C1A463B6C9342BC
:1037340008DD97F846305B0048333B4433F9403C9E
:103744003B6412E097F846305B0048333B4433F95E
:10375400403C1A46FB6B934207DA97F846305B000D
:1037640048333B4433F9403CFB6397F8463001331C
:1037740087F8463097F84630092BCFD9012387F8CC
:1037840046302FE097F846300A335B0048333B4419
:1037940033F9403C1A46BB6B934209DD97F8463037
:1037A4000A335B0048333B4433F9403CBB6314E0C9
:1037B40097F846300A335B0048333B4433F9403CC6
:1037C4001A467B6B934208DA97F846300A335B005B
:1037D40048333B4433F9403C7B6397F8463001332C
:1037E40087F8463097F84630092BCBD9B7F908301B
:1037F4001A46B7F90A301344B7F90C201344B7F941
:103804000E201344B7F910201344B7F912201344BF
:10381400B7F914201344B7F916201344B7F9182044
:103824001344B7F91A201A443B6CD21AFB6BD31A0F
:10383400DB101AB27B681A80B7F91C301A46B7F944
:103844001E301344B7F920201344B7F9222013443F
:10385400B7F924201344B7F926201344B7F92820D4
:103864001344B7F92A201344B7F92C201344B7F9A9
:103874002E201A44BB6BD21A7B6BD31ADB101AB2FC
:103884007B685A80012300E0002318464837BD4670
:1038940080BD00BF001801404405002080B586B0FB
:1038A40000AFF860B9607A600123FB75BB68B3F9B7
:1038B40000301A46BB681033B3F90030D31ABA6823
:1038C4000832B2F902201146BA681032B2F9022065
:1038D4008A1A03FB02F2BB680833B3F900301946B5
:1038E400BB681033B3F90030CB1AB968B1F90210D0
:1038F4000846B9681031B1F90210411A01FB03F30B
:10390400D31A1846FCF74EFD02467B689A617B6821
:103914009B694FF000011846FCF72CFF0346002B6F
:1039240002D00023FB7577E1FB68B3F900301A4637
:10393400FB681033B3F90030D31ABA680832B2F90D
:1039440002201146BA681032B2F902208A1A03FB27
:1039540002F2FB680833B3F900301946FB681033F0
:10396400B3F90030CB1AB968B1F902100846B96846
:103974001031B1F90210411A01FB03F3D31A1846AE
:10398400FCF710FD02467B681A60BB68B3F900308F
:103994001A46BB681033B3F90030D31AFA680832F8
:1039A400B2F900201146FA681032B2F900208A1ADE
:1039B40003FB02F2FB68B3F900301946FB681033CD
:1039C400B3F90030CB1AB9680831B1F900100846D0
:1039D400B9681031B1F90010411A01FB03F3D31A8D
:1039E4001846FCF7DFFC02467B685A60BB6810335C
:1039F400B3F900301A46FB680833B3F9003003FB0F
:103A040002F2BB680833B3F900301946FB6810337F
:103A1400B3F9003001FB03F3D31ABA68B2F90220F8
:103A240003FB02F2BB68B3F900301946FB6810339C
:103A3400B3F9003003FB01F1BB681033B3F9003074
:103A44001846FB68B3F9003000FB03F3CB1AB968DE
:103A54000831B1F9021001FB03F31A44BB680833BF
:103A6400B3F900301946FB68B3F9003003FB01F1E8
:103A7400BB68B3F900301846FB680833B3F900306B
:103A840000FB03F3CB1AB9681031B1F9021001FB42
:103A940003F313441846FCF785FC02467B689A60DE
:103AA400FB68B3F902301A46FB681033B3F90230ED
:103AB400D31ABA680832B2F902201146BA68103231
:103AC400B2F902208A1A03FB02F2FB680833B3F945
:103AD40002301946FB681033B3F90230CB1AB968C7
:103AE400B1F902100846B9681031B1F90210411A4F
:103AF40001FB03F3D31A1846FCF754FC02467B6817
:103B0400DA60BB68B3F900301A46BB681033B3F906
:103B14000030D31AFA680832B2F902201146FA6862
:103B24001032B2F902208A1A03FB02F2FB68B3F9DD
:103B340002301946FB681033B3F90230CB1AB96866
:103B44000831B1F900100846B9681031B1F9001014
:103B5400411A01FB03F3D31A1846FCF723FC02466F
:103B64007B681A61BB681033B3F900301A46FB68EE
:103B74000833B3F9023003FB02F2BB680833B3F92C
:103B840000301946FB681033B3F9023001FB03F32C
:103B9400D31ABA68B2F9022003FB02F2BB68B3F984
:103BA40000301946FB681033B3F9023003FB01F10E
:103BB400BB681033B3F900301846FB68B3F9023020
:103BC40000FB03F3CB1AB9680831B1F9021001FB09
:103BD40003F31A44BB680833B3F900301946FB6891
:103BE400B3F9023003FB01F1BB68B3F900301846A6
:103BF400FB680833B3F9023000FB03F3CB1AB9684E
:103C04001031B1F9021001FB03F313441846FCF719
:103C1400C9FB02467B685A61FB7D18461837BD46CE
:103C240080BD80B582B000AF03460A46FB801346D0
:103C3400BB80FB880A3B98B2FB880A339AB2BB88E4
:103C4400B988FDF7FFFCBB880A3B99B2BB880A33ED
:103C54009BB2FA88F888FDF7F5FC00BF0837BD462B
:103C640080BD0000B0B5B8B002AF0346FB710023BD
:103C7400A7F8D4300023A7F8D2300023A7F8D03017
:103C84000023A7F8CE300023C7F8C830B348FDF7A7
:103C9400CDFF00211F20FDF7E1FFFB791846FDF75A
:103CA40085FBAF4B1B889B089BB21BB2A7F8443023
:103CB400AC4B1B889B089BB21BB2A7F84630B7F9E4
:103CC4004430A7F84C30A74B1B881A4613465B00B8
:103CD40013449B101BB2A7F84E30A14B1B881A4605
:103CE40013465B0013449B101BB2A7F85430B7F97A
:103CF4004E30A7F85630B7F95430A7F85C30B7F90E
:103D04004630A7F85E30002387F8D73084E00021DE
:103D14004FF47840FDF7A2FF914B1A88914B1B8812
:103D240000210020FDF740FC8F4BC7F8C8308C4BB6
:103D34001C88FDF789FF03469B88B4FBF3F39BB211
:103D44001C46D7F8C800FCF76BFA0346E31A5A0876
:103D540007F16400D7F8C83000932023834902F0A8
:103D6400BFFD804B1B885B089BB207F164021146C0
:103D74001846FDF7CFFE7A4B1C88FDF765FF034616
:103D84009B88B4FBF3F39BB2013BDA0F13445B1043
:103D94001A4697F8D730013307F1640000932023C3
:103DA400734902F09DFD6F4B1B885B089CB2FDF7C5
:103DB4004BFF0346DB88E31A9BB207F1640211460A
:103DC4001846FDF7A7FE6B48FFF78AFB97F8D73034
:103DD400DB00D8333B4433F9943C9AB297F8D7309C
:103DE400DB00D8333B4433F9923C9BB2194610466E
:103DF400FFF717FF00BF97F8D73007F12402DB0065
:103E040013441846FFF734FC0346002BF3D097F80D
:103E1400D730013387F8D73097F8D730032B7FF6A4
:103E240076AF07F1080207F1240107F144031846AD
:103E3400FFF734FD3B6A4FF000011846FCF79AFC8B
:103E44000346002B40F04881BC68B7F93C30184663
:103E5400FCF7A8FA034619462046FCF7F7FA03468E
:103E64001D46FC68B7F93E301846FCF79BFA03463A
:103E740019462046FCF7EAFA034619462846FCF799
:103E8400DDF903461A463B6919461046FCF7D6F994
:103E940003461A463B6A19461046FCF78BFB034659
:103EA4001846FCF7BFFC0346A7F8D4307C69B7F981
:103EB4003C301846FCF776FA034619462046FCF7D0
:103EC400C5FA03461D46BC69B7F93E301846FCF7EF
:103ED40069FA034619462046FCF7B8FA0346194620
:103EE4002846FCF7ABF903461A46FB691946104607
:103EF400FCF7A4F903461A463B6A19461046FCF738
:103F040059FB03461846FCF78DFC0346A7F8D2304C
:103F1400B7F8D430B7F95C20934207DDB7F95C30C9
:103F24009BB2B7F8D420D31A9BB206E0B7F95C3041
:103F34009AB2B7F8D430D31A9BB2A7F8D030B7F8F6
:103F4400D230B7F95E20934216DDB7F95E309BB2EA
:103F5400B7F8D220D31A9BB215E000BF00000020AE
:103F6400180000201A00002010830008288300088D
:103F740030830008E0930400B7F95E309AB2B7F8D2
:103F8400D230D31A9BB2A7F8CE30B7F8D0300F2B6B
:103F940000F2A480B7F8CE300F2B00F29F80BB68EC
:103FA4003A6AFC7911461846FCF704FB03461946A5
:103FB4007F4A23465B002344DB0013441960FB68FB
:103FC4003A6AFC7911461846FCF7F4FA0346194696
:103FD400774A23465B002344DB001344043319600F
:103FE4003B693A6AFC7911461846FCF7E3FA034642
:103FF40019466F4A23465B002344DB00134408330D
:1040040019607B693A6AFC7911461846FCF7D2FAC2
:1040140003461946664A23465B002344DB001344E7
:104024000C331960BB693A6AFC7911461846FCF7EF
:10403400C1FA034619465E4A23465B002344DB006B
:10404400134410331960FB693A6AFC791146184627
:10405400FCF7B0FA03461946554A23465B0023444D
:10406400DB00134414331960524B1A88524B1B88DB
:1040740000210020FDF798FA4FF4FC60FDF706FEDE
:104084004E4BC7F8C8304B4B1C88FDF7DDFD03468B
:104094009B88B4FBF3F39BB21C46D7F8C800FCF72B
:1040A400BFF80346E31A5A0807F16400D7F8C8308A
:1040B40000932023424902F013FC3F4B1B885B080A
:1040C4009BB207F1640211461846FDF723FD3D48F3
:1040D400FFF706FA012366E000BF00E000BF354B9E
:1040E4001A88354B1B8800210020FDF75DFA4FF438
:1040F4007840FDF7CBFD344BC7F8C8302D4B1C88F6
:10410400FDF7A2FD03469B88B4FBF3F39BB21C4668
:10411400D7F8C800FCF784F80346E31A5A0807F1F5
:104124006400D7F8C83000932023254902F0D8FB57
:10413400214B1B885B089BB207F1640211461846A9
:10414400FDF7E8FC214BC7F8C8301A4B1C88FDF773
:104154007BFD03469B88B4FBF3F39BB21C46D7F864
:10416400C800FCF75DF80346E31A5A0807F1640037
:10417400D7F8C83000932023114902F0B1FB0E4B4D
:104184001B885B089CB2FDF75FFD0346DB88234474
:104194009BB207F1640211461846FDF7BBFC0948BF
:1041A400FFF79EF900231846D837BD46B0BD00BFBF
:1041B4002C000020180000201A000020388300087A
:1041C4002883000840420F004C8300085C830008E9
:1041D40080B584B000AF03460A46FB711346BB7139
:1041E4000023FB7307F10F0301224FF4806118468B
:1041F400FCF75AFCFB7BA52B14BF01230023DAB286
:10420400BB79012B0CBF01230023DBB21343DBB2C8
:10421400002B2AD0FB7BA52B08D1BB79012B05D120
:10422400C0224FF400611648FCF73EFC00BFFB7946
:104234001846FFF717FD0346002BF8D0114802F08B
:1042440047FB0020FCF70EFBA523FB7307F10F03CC
:1042540001224FF480611846FCF77CFBC0224FF426
:1042640000610748FCF776FB05E0C0224FF40061CB
:104274000348FCF719FC00BF1037BD4680BD00BFE2
:104284002C00002068830008B0B586B000AF7860C9
:1042940039600123FB7507F10C031846FFF7E8F9B1
:1042A4000346002B00F093804C4B1B781A461346B0
:1042B4005B001344DB001A463B6813441C68B7F9DF
:1042C4000C301846FCF76EF8034619462046FCF7F6
:1042D400BDF803461D46414B1B781A4613465B0046
:1042E4001344DB001A463B6813445C68B7F90E308C
:1042F4001846FCF757F8034619462046FCF7A6F87B
:10430400034619462846FBF799FF03461846334BE4
:104314001B781A4613465B001344DB001A463B68BD
:1043240013449B681946FBF789FF03461846FCF7BC
:1043340053FA03461AB27B681A80284B1B781A4634
:1043440013465B001344DB001A463B681344DC68E5
:10435400B7F90C301846FCF725F8034619462046F1
:10436400FCF774F803461D461C4B1B781A4613468B
:104374005B001344DB001A463B6813441C69B7F91D
:104384000E301846FCF70EF8034619462046FCF793
:104394005DF8034619462846FBF750FF03461846C6
:1043A4000E4B1B781A4613465B001344DB001A4677
:1043B4003B6813445B691946FBF740FF0346184604
:1043C400FCF70AFA03461AB27B685A8001E000231C
:1043D400FB75FB7D18461837BD46B0BD1C00002098
:1043E40080B582B000AF0023FB71324B1B78022BE7
:1043F40041D0022B52DC002B02D0012B13D04DE014
:1044040010212D4800F0ACFC0346002B05D1294BAC
:1044140001221A700023FB7146E0264B00221A7019
:104424000023FB7140E01021234800F099FC03466F
:10443400002B17D1214B1B680133204A13601F4BFB
:104444001B68022B08D91D4B00221A60194B02224B
:104454001A700123FB7127E0164B01221A70002306
:10446400FB7121E0154B00221A60124B00221A70D6
:104474000023FB7118E010210F4800F071FC034683
:10448400002B05D10B4B02221A700123FB710BE0A8
:10449400084B00221A700023FB7105E0054B002233
:1044A4001A700023FB7100BFFB7918460837BD461C
:1044B40080BD00BF450500200018014048050020CC
:1044C40080B582B000AF78607B68B3F90430B3F193
:1044D400FF3F05D17B68B3F90430B3F1FF3F0AD045
:1044E4007B68B3F900207B68B3F9023019461046A3
:1044F400FEF77EFC00E000BF0837BD4680BD00002B
:1045040080B582B000AF78607B68B3F90430B3F152
:10451400FF3F05D17B68B3F90430B3F1FF3F10D0FE
:104524000A4801F047FC7B68B3F900207B68B3F9C3
:10453400023019461046FEF787FC044801F0DAFB06
:1045440000E000BF0837BD4680BD00BFF404002072
:1045540080B500AFFFF744FF0346012B11D1134987
:104564001348FFF791FE1248FFF7AAFF104BB3F967
:1045740000200F4B9A800E4BB3F902200C4BDA80CB
:1045840012E00B48FFF7BCFF094B4FF6FF721A808D
:10459400074B4FF6FF725A80054B4FF6FF729A8015
:1045A400034B4FF6FF72DA8000BF80BD2C00002061
:1045B400EC00002080B582B000AF7860391D4FF662
:1045C400FF730122034801F094FE7B681846083704
:1045D400BD4680BD4C05002080B500AF114B124A8A
:1045E4001A60104B4FF4FA325A600E4B00229A6054
:1045F4000C4B0022DA600B4B00221A61094B0C228F
:104604005A61084B00229A61064B0022DA61054880
:1046140001F022FE0346002B01D0FDF78EFF00BF00
:1046240080BD00BF4C0500200038014080B588B033
:1046340000AF786007F1100300221A605A609A6094
:10464400DA607B681B681C4A934231D11B4B9B691F
:104654001A4A43F480439361184B9B6903F48043E3
:10466400FB60FB68154B9B69144A43F00403936198
:10467400124B9B6903F00403BB60BB684FF40073E7
:104684003B6102237B610323FB6107F1100319469D
:104694000B4800F0D1F94FF480633B6100237B6148
:1046A4000023BB6107F110031946054800F0C4F963
:1046B40000BF2037BD4680BD0038014000100240D5
:1046C400000801400C480D490D4A002302E0D4586B
:1046D400C4500433C4188C42F9D30A4A0A4C002348
:1046E40001E013600432A242FBD3FEF777FD02F02F
:1046F40047F8FDF795FE7047000000206001002098
:1047040098BF000860010020A4050020FEE7000017
:1047140080B500AF084B1B68074A43F010031360D1
:10472400032000F047F90F2000F008F8FEF73AFCE8
:104734000023184680BD00BF0020024080B582B02F
:1047440000AF7860124B1A68124B1B7819464FF46D
:104754007A73B3FBF1F3B2FBF3F3184600F05FF99D
:104764000346002B01D001230EE07B680F2B0AD8EF
:10477400002279684FF0FF3000F027F9064A7B6881
:104784001360002300E0012318460837BD4680BDAE
:1047940028000020F8000020F400002080B400AFBE
:1047A400054B1B781A46054B1B681344034A1360D8
:1047B40000BFBD4680BC7047F80000209005002073
:1047C40080B400AF024B1B681846BD4680BC7047DE
:1047D4009005002080B584B000AF7860FFF7F0FF4B
:1047E400B8607B68FB60FB68B3F1FF3F05D00A4B00
:1047F4001B781A46FB681344FB6000BFFFF7E0FF19
:104804000246BB68D31AFA689A42F7D800BF00BFC1
:104814001037BD4680BD00BFF800002080B485B0CD
:1048240000AF78607B6803F00703FB600C4BDB6828
:10483400BB60BA684FF6FF031340BB60FB681A0203
:10484400BB68134343F0BF6343F40033BB60044AC3
:10485400BB68D36000BF1437BD4680BC704700BF3F
:1048640000ED00E080B400AF044BDB681B0A03F0EA
:1048740007031846BD4680BC704700BF00ED00E04A
:1048840080B483B000AF0346FB7197F90730002B67
:104894000BDBFB7903F01F02064997F907305B092C
:1048A400012000FA02F241F8232000BF0C37BD4674
:1048B40080BC704700E100E080B483B000AF0346E1
:1048C4003960FB7197F90730002B0ADB3B68DAB2D9
:1048D4000C4997F907301201D2B20B4483F8002334
:1048E4000AE03B68DAB20849FB7903F00F03043BA2
:1048F4001201D2B20B441A7600BF0C37BD4680BCFD
:10490400704700BF00E100E000ED00E080B489B032
:1049140000AFF860B9607A60FB6803F00703FB61DD
:10492400FB69C3F10703042B28BF0423BB61FB69A4
:104934000433062B02D9FB69033B00E000237B61AF
:104944004FF0FF32BB6902FA03F3DA43BB681A4043
:104954007B699A404FF0FF317B6901FA03F3D94335
:104964007B680B40134318462437BD4680BC704710
:1049740080B582B000AF78607B68013BB3F1807F83
:1049840001D301230FE00A4A7B68013B53600F21E6
:104994004FF0FF30FFF790FF054B00229A60044B65
:1049A40007221A60002318460837BD4680BD00BFA1
:1049B40010E000E080B582B000AF78607868FFF75F
:1049C4002DFF00BF0837BD4680BD80B586B000AF5F
:1049D4000346B9607A60FB7300237B61FFF742FFF3
:1049E40078617A68B9687869FFF790FF024697F9A9
:1049F4000F3011461846FFF75FFF00BF1837BD465A
:104A040080BD80B582B000AF0346FB7197F90730D3
:104A14001846FFF735FF00BF0837BD4680BD80B597
:104A240082B000AF78607868FFF7A2FF03461846AB
:104A34000837BD4680BD000080B48BB000AF7860FD
:104A4400396000237B6200233B6279E101227B6AA7
:104A540002FA03F3FB613B681B68FA691340BB610C
:104A6400BA69FB699A4240F068813B685B68964A80
:104A740093425ED0944A934275D8944A934258D054
:104A8400924A93426FD8924A934252D0904A9342A8
:104A940069D8904A93424CD08E4A934263D88E4A46
:104AA400934246D08C4A93425DD8122B2AD8122BBB
:104AB40059D801A252F823F0374B0008114B0008D3
:104AC400234B0008654B00086B4B00086B4B000838
:104AD4006B4B00086B4B00086B4B00086B4B0008DA
:104AE4006B4B00086B4B00086B4B00086B4B0008CA
:104AF4006B4B00086B4B00086B4B0008194B00080C
:104B04002D4B0008754A934213D02CE03B68DB68B8
:104B14003B6229E03B68DB6804333B6224E03B688A
:104B2400DB6808333B621FE03B68DB680C333B62A5
:104B34001AE03B689B68002B02D104233B6213E01C
:104B44003B689B68012B05D108233B627B68FA69AB
:104B54001A6109E008233B627B68FA695A6103E041
:104B640000233B6200E000BFBB69FF2B01D87B68D8
:104B740001E07B6804337B61BB69FF2B02D87B6A4D
:104B84009B0002E07B6A083B9B003B617B691A68DF
:104B94000F213B6901FA03F3DB431A40396A3B698D
:104BA40001FA03F31A437B691A603B685B6803F0FC
:104BB4008053002B00F0C180494B9B69484A43F065
:104BC40001039361464B9B6903F00103BB60BB681F
:104BD400444A7B6A9B08023352F82330FB607B6AA9
:104BE40003F003039B000F2202FA03F3DB43FA688A
:104BF4001340FB607B683C4A93421FD07B683B4A6E
:104C0400934219D07B683A4A934213D07B68394A5D
:104C140093420DD07B68384A934207D07B68374A69
:104C2400934201D105230AE0062308E0042306E0A9
:104C3400032304E0022302E0012300E000237A6A54
:104C440002F0030292009340FA681343FB60254983
:104C54007B6A9B080233FA6841F823203B685B684F
:104C640003F48033002B06D0254B1A682449BB6912
:104C740013430B6006E0224B1A68BB69DB432049EF
:104C840013400B603B685B6803F40033002B06D0D1
:104C94001B4B5A681A49BB6913434B6006E0184B17
:104CA4005A68BB69DB43164913404B603B685B6839
:104CB40003F48013002B25D0114B9A681049BB696B
:104CC40013438B6025E000BF000032100000311058
:104CD400000022100000211000001210000011102A
:104CE400001002400000014000080140000C014097
:104CF400001001400014014000180140001C014054
:104D040000040140154B9A68BB69DB431349134007
:104D14008B603B685B6803F40013002B06D00F4BD9
:104D2400DA680E49BB691343CB6006E00B4BDA68C3
:104D3400BB69DB4309491340CB607B6A01337B6267
:104D44003B681A687B6A22FA03F3002B7FF47EAE79
:104D540000BF00BF2C37BD4680BC70470004014033
:104D640080B485B000AF78600B467B807B689A681E
:104D74007B881340002B02D00123FB7301E0002346
:104D8400FB73FB7B18461437BD4680BC704780B468
:104D940083B000AF78600B467B8013467B707B78D2
:104DA400002B03D07A887B681A6103E07B881A049D
:104DB4007B681A6100BF0C37BD4680BC7047000099
:104DC40080B582B000AF0346FB80084B5A69FB886C
:104DD4001340002B06D0054AFB885361FB88184614
:104DE400FCF7ACF800BF0837BD4680BD00040140A5
:104DF40080B586B000AF78607B68002B01D10123B9
:104E040072E27B681B6803F00103002B00F08780CB
:104E1400924B5B6803F00C03042B0CD08F4B5B6844
:104E240003F00C03082B12D18C4B5B6803F4803322
:104E3400B3F5803F0BD1894B1B6803F40033002B7F
:104E44006CD07B685B68002B68D101234CE27B68E3
:104E54005B68B3F5803F06D1804B1B687F4A43F4FF
:104E6400803313602EE07B685B68002B0CD17B4B96
:104E74001B687A4A23F480331360784B1B68774AA3
:104E840023F4802313601DE07B685B68B3F5A02FD7
:104E94000CD1724B1B68714A43F4802313606F4B2F
:104EA4001B686E4A43F4803313600BE06B4B1B6842
:104EB4006A4A23F480331360684B1B68674A23F4FF
:104EC400802313607B685B68002B13D0FFF778FCAA
:104ED400386108E0FFF774FC02463B69D31A642B7F
:104EE40001D9032300E25D4B1B6803F40033002B5C
:104EF400F0D014E0FFF764FC386108E0FFF760FCD1
:104F040002463B69D31A642B01D90323ECE1534BCA
:104F14001B6803F40033002BF0D100E000BF7B6872
:104F24001B6803F00203002B63D04C4B5B6803F057
:104F34000C03002B0BD0494B5B6803F00C03082BCC
:104F44001CD1464B5B6803F48033002B16D1434BD2
:104F54001B6803F00203002B05D07B681B69012B3F
:104F640001D00123C0E13D4B1B6823F0F8027B68AC
:104F74005B69DB00394913430B603AE07B681B69CA
:104F8400002B20D0364B01221A60FFF719FC386140
:104F940008E0FFF715FC02463B69D31A022B01D93E
:104FA4000323A1E12D4B1B6803F00203002BF0D077
:104FB4002A4B1B6823F0F8027B685B69DB002749F6
:104FC40013430B6015E0264B00221A60FFF7F8FB31
:104FD400386108E0FFF7F4FB02463B69D31A022B61
:104FE40001D9032380E11D4B1B6803F00203002B4E
:104FF400F0D17B681B6803F00803002B3AD07B6870
:105004009B69002B19D0174B01221A60FFF7D8FBBC
:10501400386108E0FFF7D4FB02463B69D31A022B40
:1050240001D9032360E10D4B5B6A03F00203002BFB
:10503400F0D0012000F0D8FA1CE00A4B00221A60DC
:10504400FFF7BEFB38610FE0FFF7BAFB02463B698E
:10505400D31A022B08D9032346E100BF00100240F3
:105064000000424280044242924B5B6A03F0020316
:10507400002BE9D17B681B6803F00403002B00F0CC
:10508400A6800023FB758B4BDB6903F08053002B58
:105094000DD1884BDB69874A43F08053D361854B3C
:1050A400DB6903F08053BB60BB680123FB75824B53
:1050B4001B6803F48073002B18D17F4B1B687E4A56
:1050C40043F480731360FFF77BFB386108E0FFF75C
:1050D40077FB02463B69D31A642B01D9032303E10E
:1050E400754B1B6803F48073002BF0D07B68DB687E
:1050F400012B06D16F4B1B6A6E4A43F00103136206
:105104002DE07B68DB68002B0CD16A4B1B6A694A73
:1051140023F001031362674B1B6A664A23F00403FE
:1051240013621CE07B68DB68052B0CD1614B1B6AA6
:10513400604A43F0040313625E4B1B6A5D4A43F00A
:10514400010313620BE05B4B1B6A5A4A23F0010311
:105154001362584B1B6A574A23F0040313627B689B
:10516400DB68002B15D0FFF72BFB38610AE0FFF753
:1051740027FB02463B69D31A41F28832934201D994
:105184000323B1E04B4B1B6A03F00203002BEED068
:1051940014E0FFF715FB38610AE0FFF711FB024644
:1051A4003B69D31A41F28832934201D903239BE02D
:1051B400404B1B6A03F00203002BEED1FB7D012B55
:1051C40005D13C4BDB693B4A23F08053D3617B68B8
:1051D400DB69002B00F08780364B5B6803F00C031F
:1051E400082B61D07B68DB69022B46D1334B00224C
:1051F4001A60FFF7E5FA386108E0FFF7E1FA0246C2
:105204003B69D31A022B01D903236DE0294B1B6898
:1052140003F00073002BF0D17B681B6AB3F5803F69
:1052240008D1244B5B6823F400327B689B682149D6
:1052340013434B601F4B5B6823F474127B68196A39
:105244007B685B6A0B431B4913434B601B4B012276
:105254001A60FFF7B5FA386108E0FFF7B1FA0246C1
:105264003B69D31A022B01D903233DE0114B1B6880
:1052740003F00073002BF0D035E0104B00221A60CD
:10528400FFF79EFA386108E0FFF79AFA02463B6995
:10529400D31A022B01D9032326E0064B1B6803F023
:1052A4000073002BF0D11EE07B68DB69012B07D172
:1052B400012319E0001002400070004060004242E7
:1052C4000B4B5B68FB60FB6803F480327B681B6AF2
:1052D4009A4206D1FB6803F470127B685B6A9A42B7
:1052E40001D0012300E0002318461837BD4680BDD5
:1052F4000010024080B584B000AF786039607B68EC
:10530400002B01D10123D0E06A4B1B6803F0070393
:105314003A689A4210D9674B1B6823F00702654923
:105324003B6813430B60634B1B6803F007033A6845
:105334009A4201D00123B8E07B681B6803F00203A2
:10534400002B20D07B681B6803F00403002B05D0DE
:10535400594B5B68584A43F4E06353607B681B68AD
:1053640003F00803002B05D0534B5B68524A43F407
:1053740060535360504B5B6823F0F0027B689B687A
:105384004D4913434B607B681B6803F00103002BFA
:1053940040D07B685B68012B07D1474B1B6803F443
:1053A4000033002B15D101237FE07B685B68022B5F
:1053B40007D1414B1B6803F00073002B09D1012373
:1053C40073E03D4B1B6803F00203002B01D1012362
:1053D4006BE0394B5B6823F003027B685B683649FA
:1053E40013434B60FFF7ECF9F8600AE0FFF7E8F9C4
:1053F4000246FB68D31A41F28832934201D903234F
:1054040053E02D4B5B6803F00C027B685B689B00E8
:105414009A42EBD1274B1B6803F007033A689A4280
:1054240010D2244B1B6823F0070222493B68134324
:105434000B60204B1B6803F007033A689A4201D0C3
:10544400012332E07B681B6803F00403002B08D0BF
:10545400194B5B6823F4E0627B68DB6816491343ED
:105464004B607B681B6803F00803002B09D0124BC8
:105474005B6823F460527B681B69DB000E491343AD
:105484004B6000F021F802460B4B5B681B0903F0EC
:105494000F030A49CB5C22FA03F3094A1360094B50
:1054A4001B681846FFF74AF9002318461037BD4613
:1054B40080BD00BF0020024000100240E0BE000892
:1054C40028000020F400002090B48AB000AF294BDB
:1054D4003C1D0FCB84E80F0040F201233B800023E6
:1054E400FB610023BB6100237B6200237B610023FB
:1054F4003B62214B5B68FB61FB6903F00C03042BEB
:1055040002D0082B03D02BE01C4B3B622BE0FB6941
:105514009B0C03F00F0328333B4413F8243C7B61BA
:10552400FB6903F48033002B12D0134B5B685B0CD4
:1055340003F0010328333B4413F8283CBB617B6927
:105544000E4A03FB02F2BB69B2FBF3F37B6204E095
:105554007B690B4A02FB03F37B627B6A3B6202E0DA
:10556400064B3B6200BF3B6A18462837BD4690BCD9
:10557400704700BF708300080010024000127A00D8
:1055840000093D0080B400AF024B1B681846BD46BD
:1055940080BC70472800002080B500AFFFF7F2FF01
:1055A4000246054B5B681B0A03F007030349CB5C07
:1055B40022FA03F3184680BD00100240F0BE000832
:1055C40080B500AFFFF7DEFF0246054B5B68DB0AE0
:1055D40003F007030349CB5C22FA03F3184680BDAA
:1055E40000100240F0BE000880B485B000AF7860BF
:1055F4000A4B1B680A4AA2FB03235B0A7A6802FB74
:1056040003F3FB6000BFFB685A1EFA60002BF9D15C
:1056140000BF00BF1437BD4680BC7047280000207F
:10562400D34D621080B582B000AF78607B68002BE8
:1056340001D1012376E07B685B6A002B08D17B688B
:105644005B68B3F5827F09D07B680022DA6105E0EC
:105654007B6800221A617B6800225A617B68002201
:105664009A627B6893F85130DBB2002B06D17B68D9
:10567400002283F850207868FDF74AFC7B680222F8
:1056840083F851207B681B681A687B681B6822F0CA
:1056940040021A607B685B6803F482727B689B68D3
:1056A40003F404431A437B68DB6803F400631A437E
:1056B4007B681B6903F002031A437B685B6903F090
:1056C40001031A437B689B6903F400731A437B68E4
:1056D400DB6903F038031A437B681B6A03F0800319
:1056E40042EA03017B689B6A03F400527B681B68EF
:1056F4000A431A607B689B691A0C7B681B6802F07A
:1057040004025A607B681B68DA697B681B6822F4B0
:105714000062DA617B6800225A657B68012283F8A3
:105724005120002318460837BD4680BD80B58CB093
:1057340000AFF860B9607A607B800123FB620023CC
:1057440087F82B30FB6893F85030012B01D10223EA
:105754008AE1FB68012283F85020FFF731F8786270
:10576400FB6893F8513087F82330FB685B68FB6172
:105774007B887B8397F82330012B0FD0FB69B3F52B
:10578400827F07D1FB689B68002B03D197F82330F5
:10579400042B03D0022387F82B305BE1BB68002B7A
:1057A40005D07B68002B02D07B88002B03D101231A
:1057B40087F82B304EE1FB6893F85130DBB2042BB1
:1057C40003D0FB68052283F85120FB6800225A6548
:1057D400FB687A689A63FB687A88DA87FB687A8858
:1057E4009A87FB68BA681A63FB687A88DA86FB686A
:1057F4007A889A86FB6800221A64FB6800225A643D
:10580400FB681B681B6803F04003402B07D0FB6850
:105814001B681A68FB681B6842F040021A60FB6848
:10582400DB68B3F5006F78D1FB685B68002B02D0AE
:105834007B8B012B66D1FB681B6B1A88FB681B688A
:10584400DA60FB681B6B9A1CFB681A63FB68DB8ECF
:105854009BB2013B9AB2FB68DA8653E0FB681B6893
:105864009B6803F00203022B1BD1FB68DB8E9BB207
:10587400002B16D0FB6A012B13D1FB681B6B1A8813
:10588400FB681B68DA60FB681B6B9A1CFB681A6375
:10589400FB68DB8E9BB2013B9AB2FB68DA8600237D
:1058A400FB62FB681B689B6803F00103012B19D1A1
:1058B400FB68DB8F9BB2002B14D0FB681B68DA6893
:1058C400FB689B6B92B21A80FB689B6B9A1CFB680B
:1058D4009A63FB68DB8F9BB2013B9AB2FB68DA8761
:1058E4000123FB62FEF76CFF02467B6AD31ABA6B94
:1058F4009A4207D8BB6BB3F1FF3F03D0032387F869
:105904002B30A7E0FB68DB8E9BB2002BA6D1FB6893
:10591400DB8F9BB2002BA1D17CE0FB685B68002B82
:1059240002D07B8B012B6BD1FB681A6BFB681B6865
:105934000C3312781A70FB681B6B5A1CFB681A63D1
:10594400FB68DB8E9BB2013B9AB2FB68DA8657E0B8
:10595400FB681B689B6803F00203022B1CD1FB68E5
:10596400DB8E9BB2002B17D0FB6A012B14D1FB6892
:105974001A6BFB681B680C3312781A70FB681B6B7C
:105984005A1CFB681A63FB68DB8E9BB2013B9AB21C
:10599400FB68DA860023FB62FB681B689B6803F0E4
:1059A4000103012B19D1FB68DB8F9BB2002B14D0B0
:1059B400FB681B68DA68FB689B6BD2B21A70FB68E1
:1059C4009B6B5A1CFB689A63FB68DB8F9BB2013BA1
:1059D4009AB2FB68DA870123FB62FEF7F1FE024606
:1059E4007B6AD31ABA6B9A4203D8BB6BB3F1FF3FFD
:1059F40002D1BB6B002B03D1032387F82B3029E0A2
:105A0400FB68DB8E9BB2002BA2D1FB68DB8F9BB2C1
:105A1400002B9DD17A6AB96BF86800F0B1F803469F
:105A2400002B06D0012387F82B30FB6820225A650F
:105A340010E0FB689B68002B0BD100237B61FB68A3
:105A44001B68DB687B61FB681B689B687B617B6907
:105A540000E000BFFB68012283F85120FB680022AC
:105A640083F8502097F82B3018463037BD4680BD58
:105A740080B588B000AFF860B9603B601346FB7135
:105A8400FEF79EFE0246BB6A9B1A3A681344FB610A
:105A9400FEF796FEB861394B1B685B011B0DFA6972
:105AA40002FB03F37B6154E03B68B3F1FF3F50D04A
:105AB400FEF786FE0246BB69D31AFA699A4202D9F6
:105AC400FB69002B3DD1FB681B685A68FB681B68A7
